:100000000C9434000C9449000C9449000C94490061
:100010000C9449000C9449000C9449000C9449003C
:100020000C9449000C9449000C9449000C9449002C
:100030000C9449000C9449000C9449000C9449001C
:100040000C9449000C9449000C9449000C9449000C
:100050000C9449000C9449000C9449000C944900FC
:100060000C9449000C94490011241FBECFEFD8E036
:10007000DEBFCDBF11E0A0E0B1E0E2EFF7E002C0EB
:1000800005900D92A03CB107D9F70E9438010C945D
:10009000F7030C940000CF92DF92EF92FF920F9340
:1000A0001F93CF93DF932A9A2A98880F991F880F5E
:1000B000991F880F991F8C01085F1F4F80179107A8
:1000C0000CF052C0BC0160587E4FEC01A096FE01BE
:1000D000E050FF4FAE01405C5E4FC058DE4F9C01C8
:1000E00020503F4FDC01A05CBE4F6D01005E1E4FF3
:1000F0006894EE24E3F8F12CDB018D91BD01882397
:1001000011F05A9A01C05A98D6018D916D01882339
:1001100011F05B9A01C05B98D9018D919D018823F4
:1001200011F05C9A01C05C988991882311F05D9A66
:1001300001C05D98DA018D91AD01882311F05E9ABE
:1001400001C05E988191882311F05F9A0AC05F9880
:1001500008C0289A28980197E1F7E017F10761F69F
:1001600003C08E2D9F2DF5CFDF91CF911F910F9161
:10017000FF90EF90DF90CF9008954F925F926F9233
:100180007F928F929F92AF92BF92CF92DF92EF9227
:10019000FF920F931F93CF93DF9300E010E0412C69
:1001A000512CEE24E394F12C6E2C7F2C689488243F
:1001B00081F8912C0F2EF3E0AF2EF02DB12CC42C32
:1001C000D52C42C0C8010C2E02C0959587950A9483
:1001D000E2F780FF0BC028B1C7010C2E02C0880FC8
:1001E000991F0A94E2F7822B88B90CC098B1970145
:1001F0000C2E02C0220F331F0A94E2F7822F809543
:10020000892388B90031110539F00831110539F019
:100210000830110539F409C0882D992D08C08A2DA0
:100220009B2D05C08C2D9D2D02C0862D972D0E94E3
:100230004B002196C530D10529F6299A29980F5FE0
:100240001F4F0032110519F0C42DD52DBBCFDF9102
:10025000CF911F910F91FF90EF90DF90CF90BF90C3
:10026000AF909F908F907F906F905F904F90089588
:100270008FEF87B984B98AB915B81BB818B80E942E
:10028000BD00FDCFACE0B0E0E8E4F1E00C94C003C9
:100290007C016B018A01FC0117821682838181FF38
:1002A000BDC1CE0101964C01F7019381F60193FD8A
:1002B000859193FF81916F01882309F4ABC1853249
:1002C00039F493FD859193FF81916F01853229F473
:1002D000B70190E00E942A03E7CF512C312C20E097
:1002E0002032A0F48B3269F030F4803259F083323E
:1002F00069F420612CC08D3239F0803339F42160EB
:1003000026C02260246023C0286021C027FD27C0AA
:1003100030ED380F3A3078F426FF06C0FAE05F9EE1
:10032000300D1124532E13C08AE0389E300D112455
:10033000332E20620CC08E3221F426FD6BC1206466
:1003400006C08C3611F4206802C0883641F4F601EC
:1003500093FD859193FF81916F018111C1CF982FFA
:100360009F7D9554933028F40C5F1F4FFFE3F98372
:100370000DC0833631F0833771F0833509F05BC0EF
:1003800022C0F801808189830E5F1F4F442443946B
:10039000512C540115C03801F2E06F0E711CF801A8
:1003A000A080B18026FF03C0652D70E002C06FEF12
:1003B0007FEFC5012C870E941F032C0183012C8530
:1003C0002F77222E17C03801F2E06F0E711CF80152
:1003D000A080B18026FF03C0652D70E002C06FEFE2
:1003E0007FEFC5012C870E9414032C012C85206807
:1003F000222E830123FC1BC0832D90E04816590652
:10040000B0F4B70180E290E00E942A033A94F4CF5E
:10041000F50127FC859127FE81915F01B70190E0EE
:100420000E942A0331103A94F1E04F1A5108411406
:10043000510471F7E5C0843611F0893639F5F801B9
:1004400027FF07C060817181828193810C5F1F4FFC
:1004500008C060817181072E000C880B990B0E5F1C
:100460001F4F2F76722E97FF09C09095809570953B
:1004700061957F4F8F4F9F4F2068722E2AE030E0AA
:10048000A4010E946203A82EA81844C0853729F44D
:100490002F7EB22E2AE030E025C0F22FF97FBF2E4A
:1004A0008F36C1F018F4883579F0B4C0803719F070
:1004B000883721F0AFC02F2F2061B22EB4FE0DC0BF
:1004C0008B2D8460B82E09C024FF0AC09F2F966030
:1004D000B92E06C028E030E005C020E130E002C0BF
:1004E00020E132E0F801B7FE07C0608171818281AE
:1004F00093810C5F1F4F06C06081718180E090E0A6
:100500000E5F1F4FA4010E946203A82EA818FB2DA6
:10051000FF777F2E76FE0BC0372D3E7FA51450F45B
:1005200074FE0AC072FC08C0372D3E7E05C0BA2C8E
:10053000372D03C0BA2C01C0B52C34FF0DC0FE010D
:10054000EA0DF11D8081803311F4397E09C032FF3C
:1005500006C0B394B39404C0832F867809F0B39493
:1005600033FD13C030FF06C05A2CB31418F4530CDB
:100570005B18B32CB31468F4B70180E290E03C87B9
:100580000E942A03B3943C85F5CFB31410F43B18B2
:1005900001C0312C34FF12C0B70180E390E03C87EA
:1005A0000E942A033C8532FF17C031FD03C088E753
:1005B00090E002C088E590E0B7010CC0832F8678F8
:1005C00059F031FF02C08BE201C080E237FD8DE2BD
:1005D000B70190E00E942A03A51438F4B70180E324
:1005E00090E00E942A035A94F7CFAA94F401EA0DEE
:1005F000F11D8081B70190E00E942A03A110F5CF80
:10060000332009F451CEB70180E290E00E942A0322
:100610003A94F6CFF7018681978102C08FEF9FEF62
:100620002C96E2E10C94DC03FC01059061507040D3
:100630000110D8F7809590958E0F9F1F0895FC01AB
:100640006150704001900110D8F7809590958E0F01
:100650009F1F08950F931F93CF93DF93FB01238177
:1006600021FD03C08FEF9FEF28C022FF16C04681F7
:100670005781248135814217530744F4A081B18109
:100680009D012F5F3F4F318320838C9326813781DB
:100690002F5F3F4F3783268310C0EB01092F182FA0
:1006A0000084F185E02D0995892BE1F68E819F81EB
:1006B00001969F838E83812F902FDF91CF911F9181
:1006C0000F910895FA01AA27283051F1203181F1C4
:1006D000E8946F936E7F6E5F7F4F8F4F9F4FAF4F4A
:1006E000B1E03ED0B4E03CD0670F781F891F9A1F5D
:1006F000A11D680F791F8A1F911DA11D6A0F711D11
:10070000811D911DA11D20D009F468943F912AE01C
:10071000269F11243019305D3193DEF6CF01089504
:10072000462F4770405D4193B3E00FD0C9F7F6CF35
:10073000462F4F70405D4A3318F0495D31FD4052FD
:10074000419302D0A9F7EACFB4E0A6959795879593
:1007500077956795BA95C9F7009761057105089572
:100760009B01AC010A2E069457954795379527951E
:10077000BA95C9F7620F731F841F951FA01D0895B6
:100780002F923F924F925F926F927F928F929F92A1
:10079000AF92BF92CF92DF92EF92FF920F931F938F
:1007A000CF93DF93CDB7DEB7CA1BDB0B0FB6F89440
:1007B000DEBF0FBECDBF09942A88398848885F8480
:1007C0006E847D848C849B84AA84B984C884DF80F1
:1007D000EE80FD800C811B81AA81B981CE0FD11DD5
:1007E0000FB6F894DEBF0FBECDBFED010895F894AB
:0207F000FFCF39
:1007F20000000000000000000100010001000100F3
:1008020000000000000000000000000000000000E6
:1008120000000000000000000000000000000000D6
:1008220000000000000000000000000000000000C6
:1008320000000000000000000000000000000000B6
:1008420000010001000100010000000000000000A2
:100852000000000000000000000000000000000096
:100862000000000000000000000000000000000086
:100872000001000100010001000000000000000072
:100882000000000000000000000000000000000066
:100892000000000000000000000000000000000056
:1008A2000000000000000000000000000000000046
:00000001FF
