:100000000C9434300C9451300C9451300C94513089
:100010000C9451300C9451300C9451300C9451305C
:100020000C9451300C9451300C9451300C9451304C
:100030000C9451300C9451300C9451300C9451303C
:100040000C9451300C9451300C9451300C9451302C
:100050000C9451300C9451300C9451300C9451301C
:100060000C9451300C945130FFFFFFFFFFFFFFFF56
:10007000FFFFFFFFFFFFFFFFFFFFFFFFFFFFFFFF90
:10008000FFFFFFFFFFFFFFFFFFFFFFFFFFFEFEFC85
:10009000FBFBF9F9F8F7F6F6F4F2EFEBE6E2E8F03D
:1000A000F4F6F9FAFDFEFFFFFAFBFDFEFFFFFFFF8E
:1000B000FFFFFFFFFFFFFFFFFFFFFFFFFFFFFFFF50
:1000C000FFFFFFFFFFFFFFFFFFFFFFFFFCF9F7F759
:1000D000F6F6F5F5F4F2F0EDEBE7E2DCD4CFD8E399
:1000E000EBF0F4F6F7F7F9FAF7F7F9FAFCFEFFFF91
:1000F000FFFFFFFFFFFFFFFFFFFFFFFFFFFFFFFF10
:10010000FFFFFFFFFFFFFFFFFFFFFEFAF8F6F4F32C
:10011000F2F1EFEEECEBE9E6E2DCD5CDC2BBC6D600
:10012000E1E9EDF1F4F6F7F7F4F6F7F7F8FBFFFF86
:10013000FFFFFFFFFFFFFFFFFFFFFFFFFFFFFFFFCF
:10014000FFFFFFFFFFFFFFFFFFFEFAF7F6F2EFEE04
:10015000EBEAE9E9E6E3E1DCD7D0C7BCAFA5B4C878
:10016000D7E0E7EBEFF1F2F3F0F0F3F6F7F8FDFF8D
:10017000FFFFFFFFFFFFFFFFFFFFFFFFFFFFFFFF8F
:10018000FFFFFFFFFFFFFFFFFFFEF7F6F2EFECE8D8
:10019000E7E4E2E1DFDCD8D3CCC3B8AA9A8EA0BAF8
:1001A000CCD7DFE5E9EDEFEFEDEFEFF1F5F7FAFF93
:1001B000FFFFFFFFFFFFFFFFFFFFFFFFFFFFFFFF4F
:1001C000FFFFFFFFFFFFFFFFFFFCF7F3EFEAE7E3AF
:1001D000DEDDDAD9D6D4CFC9C0B6A99883748BAB8B
:1001E000C0CFD8DFE4E7E9ECE7EAEEEFF2F6F8FF9C
:1001F000FFFFFFFFFFFFFFFFFFFFFFFFFFFFFFFF0F
:10020000FFFFFFFFFFFFFFFFFFF9F5EFEBE7E0DD8B
:10021000D9D5D4D2CFCBC5BEB4A998836C5B759A1F
:10022000B4C4D1D9DEE2E6E7E4E6E9EDEFF4F7FDA8
:10023000FFFFFFFFFFFFFFFFFFFFFFFFFFFFFFFFCE
:10024000FFFFFFFFFFFFFFFFFFF7F3EDE7E0DCD667
:10025000D3CFCDCBC7C2BBB3A799876F53405F8ABB
:10026000A6BAC8D1D8DCDFE3DEE2E5E8EDF1F6FBC3
:10027000FFFFFFFFFFFFFFFFFFFFFFFFFFFFFFFF8E
:10028000FFFFFFFFFFFFFFFFFFF6EFEAE3DCD5D044
:10029000CBC7C4C2BDB8B0A79A8A74593A23467670
:1002A00099B0BECAD2D7DBDDD9DDE1E5EAEEF5F9DA
:1002B000FFFFFFFFFFFFFFFFFFFFFFFFFFFFFFFF4E
:1002C000FFFFFFFFFFFFFFFFFEF6EDE5DED6D0C923
:1002D000C3BFBBB9B4AFA69B8C7962421F0B2F641E
:1002E0008BA4B6C2CBD1D5D8D5D8DCE1E6EDF4F7F6
:1002F000FFFFFFFFFFFFFFFFFFFFFFFFFFFFFFFF0E
:10030000FFFFFFFFFFFFFFFFFDF5ECE3DAD1C9C1FF
:10031000BCB6B2AFABA59A8F7E694D2B0C011A52B9
:100320007C99ACBAC5CBCFD3CED4D8DDE4EBF1F712
:10033000FEFFFFFFFFFFFFFFFFFFFFFFFFFFFFFFCE
:10034000FFFFFFFFFFFFFFFFFBF3E9DFD4CBC2BAE4
:10035000B5AEAAA6A1998F81705738160200093E42
:100360006E8CA2B2BDC5CBCECBCED4DAE0E8EFF72F
:10037000FDFFFFFFFFFFFFFFFFFFFFFFFFFFFFFF8F
:10038000FFFFFFFFFFFFFFFFF9EFE5DAD1C6BCB3C8
:10039000ACA6A09B968E82736046240700000229BB
:1003A0005C8098A9B5BEC4C8C5C9CFD6DCE5EEF659
:1003B000FDFFFFFFFFFFFFFFFFFFFFFFFFFFFFFF4F
:1003C000FFFFFFFFFFFFFFFFF7EDE3D7CBBFB4ABAE
:1003D000A39C97928C827565503212010000001721
:1003E0004D748FA1AEB7BEC3BFC4CAD1D9E2ECF57C
:1003F000FCFFFFFFFFFFFFFFFFFFFFFFFFFFFFFF10
:10040000FFFFFFFFFFFFFFFFF7EDE0D3C6B9ADA38E
:100410009A938D88817668573E2006000000000878
:100420003C668398A6B0B8BCB8BEC5CDD6DFEAF4AA
:10043000FBFFFFFFFFFFFFFFFFFFFFFFFFFFFFFFD0
:10044000FFFFFFFFFFFFFFFFF6EBDCCFC0B2A69B75
:100450009189837D766A5C482D10010000000002BE
:100460002B59798E9EA9B1B6B2B8C0C9D2DCE8F2D8
:10047000FAFFFFFFFFFFFFFFFFFFFFFFFFFFFFFF91
:10048000FFFFFFFFFFFFFFFFF6E9DACABBAC9E925A
:10049000887F78726A5E4E381D04000000000000FC
:1004A000194B6D8596A2ABB0ACB3BBC4CFD9E6F007
:1004B000FAFFFFFFFFFFFFFFFFFFFFFFFFFFFFFF51
:1004C000FFFFFFFFFFFFFFFFF6E7D7C6B6A5968940
:1004D0007D746D675E5140290D0000000000000032
:1004E0000C3E627B8D9AA4ABA6ADB6C0CBD7E3EF32
:1004F000F9FFFFFFFFFFFFFFFFFFFFFFFFFFFFFF12
:10050000FFFFFFFFFFFFFFFFF5E5D3C1B09E8E8029
:10051000746B635C5245321A020000000000000058
:10052000052E567184939CA3A0A7B0BBC7D4E1ED60
:10053000F8FFFFFFFFFFFFFFFFFFFFFFFFFFFFFFD2
:10054000FFFFFFFFFFFFFFFFF4E3D0BDAA9887770F
:100550006A6058504638240B00000000000000007C
:1005600002204A677C8B969C99A2ABB6C3D1DFEC84
:10057000F8FFFFFFFFFFFFFFFFFFFFFFFFFFFFFF92
:10058000FFFFFFFFFFFFFFFFF2E1CDB9A4917F6FF7
:1005900060554C453A2B1602000000000000000098
:1005A00001133E5D73838E96939BA5B2BFCEDDEBA8
:1005B000F7FFFFFFFFFFFFFFFFFFFFFFFFFFFFFF53
:1005C000FFFFFFFFFFFFFFFDF1DFC9B39E8A7665E6
:1005D000564A41392D1D09000000000000000000AE
:1005E000000B31536A7B868F8C95A0ADBBCBDAEACA
:1005F000F7FFFFFFFFFFFFFFFFFFFFFFFFFFFFFF13
:10060000FFFFFFFFFFFFFFF8ECDAC5AF99826D5ADD
:100610004B3F362D200F02000000000000000000BC
:100620000006254862748088858E9AA8B7C7D8E9E5
:10063000F6FFFFFFFFFFFFFFFFFFFFFFFFFFFFFFD3
:10064000FFFFFFFFFFFFFBF1E5D5C0A9937C6652DA
:1006500041342B21140600000000000000000000BF
:100660000002193D586B78827F8994A3B2C4D6E703
:10067000F6FEFFFFFFFFFFFFFFFFFFFFFFFFFFFF94
:10068000FFFFFFFFFFFFF6EBDDCEBBA58E745D47DE
:1006900036291F15080100000000000000000000BE
:1006A00000010F334F62707A78828F9EAEC1D4E61C
:1006B000F5FEFFFFFFFFFFFFFFFFFFFFFFFFFFFF55
:1006C000FFFFFFFFFFFCF0E3D7C8B5A08970563FDE
:1006D0002C1E130A020000000000000000000000B1
:1006E00000000928455B6973717B8999ABBED1E431
:1006F000F5FEFFFFFFFFFFFFFFFFFFFFFFFFFFFF15
:10070000FFFFFFFFFFF7E8DCD1C2B09B856D533CD4
:100710002614080200000000000000000000000095
:100720000000051D3C52616B6B748394A6BACFE345
:10073000F5FEFFFFFFFFFFFFFFFFFFFFFFFFFFFFD4
:10074000FFFFFFFFFEF1E0D5CABBAA9680695239D0
:100750002410040000000000000000000000000061
:100760000000021432495963646E7D8EA2B7CCE159
:10077000F3FEFFFFFFFFFFFFFFFFFFFFFFFFFFFF96
:10078000FFFFFFFFFBEAD9CFC3B4A4917D664F37CB
:100790002310030000000000000000000000000023
:1007A0000000010D2841525C5C6776899EB4CAE066
:1007B000F3FEFFFFFFFFFFFFFFFFFFFFFFFFFFFF56
:1007C000FFFFFFFFF6E2D1C7BCAF9F8C78624B35CD
:1007D000220F0400000000000000000000000000E4
:1007E000000000071F3849545561718499B0C8DE74
:1007F000F2FDFFFFFFFFFFFFFFFFFFFFFFFFFFFF18
:10080000FFFFFFFEF1DACAC0B5A89887745E4933CE
:10081000200E0400000000000000000000000000A6
:1008200000000003162F414D4E5A6B7F95ADC6DD7B
:10083000F1FDFFFFFFFFFFFFFFFFFFFFFFFFFFFFD8
:10084000FFFFFFFBE9D2C2B9AEA393826F5B4631D3
:100850001E0D03000000000000000000000000006A
:10086000000000010E2739464754667A91AAC3DC7E
:10087000F0FDFFFFFFFFFFFFFFFFFFFFFFFFFFFF99
:10088000FFFFFFF7E0C9BAB1A79C8D7C6B57432FE0
:100890001D0D03000000000000000000000000002B
:1008A00000000000081E313F404D5F758CA7C1DA83
:1008B000EFFDFFFFFFFFFFFFFFFFFFFFFFFFFFFF5A
:1008C000FFFFFFF2D6C1B2A9A09588786653412EEA
:1008D0001C0D0300000000000000000000000000EC
:1008E0000000000004152A373847596F88A3BED886
:1008F000EFFDFFFFFFFFFFFFFFFFFFFFFFFFFFFF1A
:10090000FFFFFCE9CDBAABA2998F817262503D2BFB
:100910001A0C0200000000000000000000000000AF
:1009200000000000010E22303240536A84A0BCD780
:10093000EFFDFFFFFFFFFFFFFFFFFFFFFFFFFFFFD9
:10094000FFFFF9E0C4B1A49B93897C6D5E4D3A2909
:10095000190B010000000000000000000000000072
:100960000000000000081B292A394D65809CBAD67A
:10097000EDFCFFFFFFFFFFFFFFFFFFFFFFFFFFFF9C
:10098000FFFFF5D6BBA99C938D8376695A49382819
:10099000160B010000000000000000000000000035
:1009A0000000000000031222233348607C9AB7D273
:1009B000E6F4FCFFFFFFFFFFFFFFFFFFFFFFFFFF6E
:1009C000FFFEEECCB3A1948D867C70635545352631
:1009D000160A0100000000000000000000000000F6
:1009E0000000000000010C1A1C2C425B7796B2C973
:1009F000DBE8F1FBFFFFFFFFFFFFFFFFFFFFFFFF54
:100A0000FFFCE3C2AA988D867F756B5F5142332449
:100A100015090000000000000000000000000000B8
:100A2000000000000000051316263C56728FA9BE78
:100A3000D0DCE5F2FCFFFFFFFFFFFFFFFFFFFFFF42
:100A4000FFF9D7B6A091867D797065594C3D30226B
:100A5000140800000000000000000000000000007A
:100A6000000000000000010C0E2036516C889FB47D
:100A7000C5D0D9E5F5FEFFFFFFFFFFFFFFFFFFFF3A
:100A8000FFF3CBAD98897E77736A6055483B2C2184
:100A9000120700000000000000000000000000003D
:100AA0000000000000000005071A324C677F95AB7C
:100AB000B9C4CDD8E9FAFFFFFFFFFFFFFFFFFFFF3B
:100AC000FEE7C0A48F8077716B63594F44372A1EAD
:100AD00010070000000000000000000000000000FF
:100AE000000000000000000004162F4760788DA071
:100AF000AEB8C1CBDBEFFDFFFFFFFFFFFFFFFFFF46
:100B0000FDDAB49A87797069665E554B4033281CCC
:100B100010070000000000000000000000000000BE
:100B2000000000000000000004152C435A70859658
:100B3000A4ADB5BFCDE0F6FFFFFFFFFFFFFFFFFF56
:100B4000F9CDA9907E7269645F574F463C312519F3
:100B50000F0700000000000000000000000000007F
:100B600000000000000000000314283E54697B8C44
:100B700099A1A9B2C0D2E9FDFFFFFFFFFFFFFFFF70
:100B8000EDBF9E87766A625D58524A42382D23181F
:100B90000F06000000000000000000000000000040
:100BA00000000000000000000312263A4E6273822B
:100BB0008E969DA7B3C3D9F4FFFFFFFFFFFFFFFF92
:100BC000DEB2937D6E635B56534C453D352B21174A
:100BD0000E06000000000000000000000000000001
:100BE000000000000000000003102235495A6B7914
:100BF000848C929AA7B6C9E4FDFFFFFFFFFFFFFEBA
:100C0000CFA68974665C53504B47403730271E157A
:100C10000C060000000000000000000000000000C2
:100C20000000000000000000020F20324253636FFA
:100C30007980878F9AA8BBD3F0FFFFFFFFFFFFF3F8
:100C4000C0987E6B5E544E4948413A342C241A11A8
:100C50000A06000000000000000000000000000084
:100C60000000000000000000020D1D2D3D4D5A67E0
:100C70006F767C848D9AABC2DEF9FFFFFFFFFFE247
:100C8000B08D7462554E4844403B352F29211911CF
:100C90000904000000000000000000000000000047
:100CA0000000000000000000010D1A293745525DC8
:100CB000666C7177818D9CB2CBEAFEFFFFFFFDD1A0
:100CC000A0816A5A4F47423D3A35302B251D170FF8
:100CD000080200000000000000000000000000000A
:100CE0000000000000000000010B182533404B55A8
:100CF0005C63676D75808FA1B9D7F5FFFFFFF2BE0A
:100D000091746052483F3B3734312C27221B120F1D
:100D100008020000000000000000000000000000C9
:100D20000000000000000000000915212D39434D8E
:100D300053595D636A738191A7C3E4FCFFFFE1AB84
:100D4000846A574A40393432302B27231D18110B3F
:100D5000080000000000000000000000000000008B
:100D600000000000000000000009121E29333C456D
:100D70004A4F52575F68738395AFCDEEFEFCCF9B11
:100D8000765E4D423A33302C292823201B15110959
:100D9000070000000000000000000000000000004C
:100DA00000000000000000000007101A232D353C51
:100DB00042474A4E535C6673849BB7D8F4EBB788BE
:100DC0006953453A332D292826221F1B17120E0876
:100DD000070000000000000000000000000000000C
:100DE000000000000000000000060E161F272E3530
:100DF000393D4044495059667588A0BDDDD3A1787E
:100E00005C4A3C322C272422211D1A1713100B0890
:100E100004000000000000000000000000000000CE
:100E2000000000000000000000040B131921282D11
:100E30003134373A3F454E5765768BA4C0B78C673F
:100E40004F3F342B26221F1C1C191613110D0908A5
:100E50000100000000000000000000000000000091
:100E6000000000000000000000020A10151B2226EE
:100E70002A2C2E31353A424B5665778CA49C7759F3
:100E800043352B25201B1918171411100E0A0807BB
:100E90000000000000000000000000000000000052
:100EA00000000000000000000001080D12161B20C9
:100EB000222427292D30373E485363758983644A9D
:100EC000372C251F191715131110100E0A080802C8
:100ED0000000000000000000000000000000000012
:100EE0000000000000000000000106090E111618A5
:100EF0001B1D1F2124282C333A44505F6F69513B3E
:100F00002C231C1815111010100F0B0908080500D0
:100F100000000000000000000000000000000000D1
:100F20000000000000000000000004070A0E10137B
:100F3000151616181B1E21262C353E4A57523E2EDA
:100F4000231B16120F0E0C0B0A08080807050100D8
:100F50000000000000000000000000000000000091
:100F600000000000000000000000010407090B0D54
:100F70000E0F0F111415171B20272E37413C2E2260
:100F800019130F0D0B0908080807060504010000D6
:100F90000000000000000000000000000000000051
:100FA000000000000000000000000000030507082A
:100FB000090A0A0B0C0D0F1115191D242A281E15DC
:100FC0000F0C0907060504050302010000000000DC
:100FD0000000000000000000000000000000000011
:100FE00000000000000000000000000000010202FC
:100FF00002030303050607080A0C0F1317150F0A4F
:1010000007050302010000010000000000000000CD
:1010100000000000000000000000000000000000D0
:1010200000000000000000000000000000000000C0
:10103000000000000000000101020203040403019B
:10104000010000000000000000000000000000009F
:101050000000000000000000000000000000000090
:101060000000000000000000FBFBFBFBFBFBFBFBA8
:10107000FBFBFBFBFBFBFBFBFCFCFCFCFDFDFDFDB4
:10108000FCFDFEFFFFFFFFFFFFFFFFFFFFFFFFFF76
:10109000FFFFFFFFFFFFFFFFFFFFFFFFFFFFFFFE61
:1010A000FDFCFDFCFBFBFBFBF9F9F8F8F8F8F7F7A2
:1010B000F6F7F7F7F8F9F9F9FAFAFAFAFAFAFAFBA1
:1010C000FBFAFBFBFDFFFFFFFFFFFFFFFFFFFFFF43
:1010D000FFFFFFFFFFFFFFFFFFFFFFFFFFFFFEFB25
:1010E000FBFAFAFAF9F9F8F8F5F5F5F5F5F4F4F490
:1010F000F3F3F3F4F5F5F5F6F6F6F7F7F8F8F8F894
:10110000F8F8FAFAFBFEFFFFFFFFFFFFFFFFFFFF0C
:10111000FFFFFFFFFFFFFFFFFFFFFFFFFFFFFDFBE5
:10112000F8F8F7F6F6F5F6F5F2F1F1F1F1F0F0F086
:10113000EFEFEFF0F1F2F2F3F3F4F4F5F5F5F6F684
:10114000F6F6F7F9FBFCFFFFFFFFFFFFFFFFFFFFD6
:10115000FFFFFFFFFFFFFFFFFFFFFFFFFFFFFCF9A8
:10116000F6F6F4F4F2F1F2F1EEEEEDEDECECEBEB81
:10117000EAEBEBEBEDEEEEEFF0F0F1F1F2F2F3F380
:10118000F3F4F6F7F9FBFEFFFFFFFFFFFFFFFFFFA2
:10119000FFFFFFFFFFFFFFFFFFFFFFFFFFFFFBF76B
:1011A000F4F3F1F0EFEFEFEEEAE9E9E9E8E7E7E77A
:1011B000E6E6E6E6E8E9EBEBECEDEDEEEFEFEFF07F
:1011C000F0F1F3F5F8FAFEFFFFFFFFFFFFFFFFFF6F
:1011D000FFFFFFFFFFFFFFFFFFFFFFFFFFFEFAF430
:1011E000F1EFEEEDEBEBEAEAE6E6E5E5E3E3E2E17B
:1011F000E1E0E1E2E4E5E6E7E8EAEAEBEBECEDEE7C
:10120000EEEEF1F3F6FAFEFFFFFFFFFFFFFFFFFF39
:10121000FFFFFFFFFFFFFFFFFFFFFFFFFFFEF9F2F2
:10122000EEECEAE9E7E7E6E6E1E1E0E0DEDEDDDC80
:10123000DCDBDCDDDFE0E2E4E4E5E6E6E8E8E9EA81
:10124000EAEBEEF1F5F9FDFFFFFFFFFFFFFFFFFF08
:10125000FFFFFFFFFFFFFFFFFFFFFFFFFFFEF8F0B5
:10126000ECE9E6E5E3E2E1E2DCDCDBDBDAD9D8D786
:10127000D6D6D7D8DADBDDDFE1E1E2E3E4E5E6E686
:10128000E7E9EBEFF3F7FCFFFFFFFFFFFFFFFFFFD7
:10129000FFFFFFFFFFFFFFFFFFFFFFFFFFFEF7EE78
:1012A000E9E5E2E1DFDEDDDDD7D7D6D6D4D3D2D291
:1012B000D0D0D2D3D5D6D8DADCDDDEDFE0E0E2E391
:1012C000E4E6E9ECF1F6FBFFFFFFFFFFFFFFFFFFA6
:1012D000FFFFFFFFFFFFFFFFFFFFFFFFFFFEF6EC3B
:1012E000E5E1DEDCDAD9D8D8D3D2D2D1CFCECDCC9D
:1012F000CACACBCDCFD1D4D6D8D9DADBDCDDDEDF9C
:10130000E0E2E5E9EEF5FBFFFFFFFFFFFFFFFFFF78
:10131000FFFFFFFFFFFFFFFFFFFFFFFFFEFCF4EA01
:10132000E2DDDAD7D5D4D3D3CDCDCCCBC9C8C7C6AF
:10133000C4C4C5C7CACCCED1D3D4D6D7D8D9DBDBA9
:10134000DCE0E3E8EDF4FBFFFFFFFFFFFFFFFFFF43
:10135000FFFFFFFFFFFFFFFFFFFFFFFFFDF8F1E7CC
:10136000DED9D5D3D1CFCECEC8C7C6C5C4C3C0BFC2
:10137000BEBDBFC1C4C6C9CBCDCFD1D2D4D5D6D7BF
:10138000D9DCDFE5EBF2FAFFFFFFFFFFFFFFFFFF16
:10139000FFFFFFFFFFFFFFFFFFFFFFFEF9F3EEE49C
:1013A000DBD5D1CECCCAC9C8C2C1C0BFBDBCB9B8DB
:1013B000B7B6B8BABDC0C3C6C8CACDCED0D1D2D4D4
:1013C000D5D8DCE2E9F1FAFFFFFFFFFFFFFFFFFFE7
:1013D000FFFFFFFFFFFFFFFFFFFFFFFBF5EFEAE26D
:1013E000D8D1CCC9C6C5C3C3BCBBBAB8B6B5B3B2F5
:1013F000B0AFB1B3B7B9BDC0C3C6C8C9CBCCCDD0EF
:10140000D1D5DAE0E7F0F9FFFFFFFFFFFFFFFFFFB5
:10141000FFFFFFFFFFFFFFFFFFFFFDF7F0EAE5DE45
:10142000D4CDC8C4C1BFBDBCB6B5B3B2B0AEADAB10
:10143000AAA9ABADB0B4B7BBBDC0C3C4C6C8C9CB05
:10144000CCD1D7DDE5EEF8FFFFFFFFFFFFFFFFFF89
:10145000FFFFFFFFFFFFFFFFFFFFFBF2EBE6E1DA1D
:10146000D0C8C2BEBBB9B7B6B0AEADACAAA8A5A431
:10147000A3A1A3A6AAADB1B5B8BABDBFC1C3C5C724
:10148000C9CDD2DAE2EDF7FFFFFFFFFFFFFFFFFF5D
:10149000FFFFFFFFFFFFFFFFFFFEF6EDE6E1DDD5FB
:1014A000CCC4BCB8B5B3B1B1A9A9A7A5A3A19E9C52
:1014B0009B9A9D9FA3A8ABAFB2B6B8BABCBDBFC242
:1014C000C5C9D0D7E0EBF7FFFFFFFFFFFFFFFFFF2E
:1014D000FFFFFFFFFFFFFFFFFFFAF1E8E1DDD8D1DB
:1014E000C7BEB7B3AFADABAAA3A2A09F9C9A989674
:1014F000949395999DA1A5A9ADB0B3B5B7B8BABC61
:10150000BFC5CCD4DEEAF7FFFFFFFFFFFFFFFFFF01
:10151000FFFFFFFFFFFFFFFFFEF4EBE2DCD8D3CCC1
:10152000C3BAB2ADAAA8A5A49D9C9A989694918F8F
:101530008D8B8E91959A9FA3A7ABAEB0B2B3B5B881
:10154000BBC0C8D1DCE8F6FFFFFFFFFFFFFFFFFFD6
:10155000FFFFFFFFFFFFFFFFF9EFE6DDD7D3CEC7A9
:10156000BEB5ACA7A4A19F9E969593918F8C8987B9
:101570008584868A8F94999EA1A5A8AAACAEB0B4A2
:10158000B7BCC5CED9E6F5FFFFFFFFFFFFFFFFFFAA
:10159000FFFFFFFFFFFFFFFDF3E9E0D8D2CDC9C297
:1015A000B9AFA6A29E9B9897908F8C8A8886827FDF
:1015B0007D7B7E82888D92979B9FA3A5A7A9ABAFC9
:1015C000B2B8C1CBD6E5F4FEFEFFFFFFFFFFFFFF81
:1015D000FFFFFFFFFFFFFFF8EDE3DAD3CDC9C4BC87
:1015E000B4AAA19B9795929189888583807D7A770B
:1015F0007573767B80868B91959A9DA0A2A3A6AAEF
:10160000ADB3BCC7D4E3F2F8F9FCFEFFFFFFFFFF68
:10161000FFFFFFFFFFFFFCF2E7DED5CDC7C3BEB77C
:10162000B0A69C95918E8C8A83817E7C7875726F32
:101630006D6B6E73797F858B8F94989B9D9EA1A512
:10164000A9B0B9C4D2E2EEF1F2F6FAFDFFFFFFFF56
:10165000FFFFFFFFFFFEF7ECE0D7CFC7C1BCB9B378
:10166000ABA196908B8885847B7A7774716E6B675B
:101670006564666B71777E84898E929597999CA03C
:10168000A4ACB5C1CFDFE7EBECEFF2F6FAFDFFFF5C
:10169000FFFFFFFFFEFAF0E6DBD2C9C1BCB7B4AE74
:1016A000A69C918984817E7B74726F6D696763608B
:1016B0005D5B5E646A70777D82888C8F9294969B66
:1016C0009FA7B0BDCCDBE1E3E5E8EBEFF3F8FCFE70
:1016D000FFFFFFFFFCF4E9DFD4CBC3BBB6B2AEA87B
:1016E000A1978C837D7976756D6B6866625F5C58B7
:1016F0005553575D636970777C82868A8C8E91968C
:101700009BA3ACBACAD6DADDDEE1E4E8ECF0F5F989
:10171000FCFEFFFDF7EDE2D8CEC5BCB6B1ADA9A386
:101720009D93877C7773706E6664615F5B575450DE
:101730004D4B4E555B626970757B808487898C91B7
:10174000969FA8B6C6D0D3D6D7DADDE1E5E9EDF2AB
:10175000F5F9FBF7EFE6DBD1C7BEB6B0ABA7A49EA9
:10176000988E8176706C69675F5D5A57544F4C480C
:101770004543474D535B626A6F75797D8183868CE3
:10178000919AA4B3C1C9CCCFD0D3D6D9DDE1E5EAD3
:10179000EDF1F3EFE8DED4CBC0B8B0AAA5A19E99D5
:1017A00092897D716A656260585653504C47444037
:1017B0003C393D454C545C63696F73777A7D818613
:1017C0008C95A1B0BCC2C5C8C9CCCFD2D6DADDE2F7
:1017D000E5E9EBE7DFD7CCC3BAB1AAA49F9C999403
:1017E0008E85776B635F5C59514F4C4844403B3763
:1017F0003331353C454D555C62696D7275787B813E
:1018000088919DABB6BBBEC0C1C4C7CACED2D5DA23
:10181000DDE0E2DFD8CFC5BCB3ABA49E9A97948F2E
:10182000898074665D5754524A4744403C37332F91
:101830002B292D343C464E565C62686C7072767C67
:10184000838C98A6AFB3B6B9BABCBFC3C7CACDD252
:10185000D5D8DAD7CFC7BEB5ADA49E9894918E895E
:10186000847A6F6157514E4B43403D3834302B27BB
:101870002321252C353E474F565C62666A6D707792
:101880007D8795A2A8ADAFB1B2B5B8BBBEC2C6CA7E
:10189000CCD0D2CEC7BFB6AEA59E97928E8C89848F
:1018A0007E766B5D514A47443B3835312D28231EE7
:1018B0001A191D242D363F484F565C6164676B71C1
:1018C0007882909CA2A6A9AAABADB0B3B6BABDC2AD
:1018D000C4C8CAC6BFB7AFA69F98928D8986837EBB
:1018E000787167594B433F3C34312E2925201B1614
:1018F0001210141C252F37414950565B5E62656CEF
:10190000747E8C969A9EA1A3A4A6A9ACAFB2B5B9D9
:10191000BCBFC1BDB7AFA79F98928C8783807D79EC
:10192000736D6356473C38352D2A27221D18130E38
:101930000A080C141E27313A424A5155595C606717
:101940006E79879095979A9C9C9FA2A4A7AAADB107
:10195000B3B6B8B5AFA8A099928B86817D7A77731C
:101960006E685F524336312E26231F1B16110B065D
:101970000301050D16202A333C444B5054565B623C
:101980006A7482898E91949596989A9DA0A2A5A931
:10199000ABAEAFADA7A099918C85807B7775726E49
:1019A0006A645A4E40312A271F1C18130E0904017D
:1019B000000001060F19232D353D454A4E51565D55
:1019C00065707B82878A8D8E8F919396989B9EA15E
:1019D000A3A5A7A59F99928B857F7974716F6C6978
:1019E000645F564B3D2C23201814100C0702000096
:1019F0000000000108111C262F373E44494C515865
:101A0000606C767B8084868788898C8E919396998A
:101A10009B9E9F9D97918B847E78736F6C6A6763A2
:101A2000605A524739291E19110D0A05020000009B
:101A300000000000020A151F2931383E43474B536E
:101A40005B677075797C7E80818285878A8C8F92B6
:101A500094969794908A837D77726D696664625ECE
:101A60005B564E43362718120B0703010000000097
:101A70000000000000050E18232B33383D42464E6F
:101A800057626A6F72757778797A7D8082848789E8
:101A90008B8D8F8E89837C76716B6764615F5C59F7
:101AA00055514A403325150C040100000000000088
:101AB00000000000000108121D252D33373B41496D
:101AC000525C64696D6F7172727376787A7C7F8212
:101AD00083868785807B756F6A65615E5B59575524
:101AE000514C453C3023140700000000000000006A
:101AF000000000000000030C171F272D32363B4466
:101B00004D575E6366686A6A6C6D6F717374777A3D
:101B10007C7E7F7D79746E69645F5C595654524F48
:101B20004C4841382D211204000000000000000044
:101B30000000000000000107111A21282D31363F56
:101B40004952585D606264656666686A6C6E707260
:101B500074767775716C67625E595653504F4D4B72
:101B600047433D352A1E110400000000000000001C
:101B700000000000000000020B141C22272C313A48
:101B8000444C52575A5B5D5E5F6062636567696B88
:101B90006C6E6F6D6965615C5853504E4B4A484698
:101BA000433F3831281C0F040000000000000000F3
:101BB0000000000000000000060E161D22272D3533
:101BC0003F474D515455575858595B5C5E606264AD
:101BD00064676866625E5A56524E4B4846454341BA
:101BE0003E3A342E261A0F040000000000000000C8
:101BF0000000000000000000010911181D2228311A
:101C00003A42474B4E5050525253555658595B5CCE
:101C10005E5F605F5B58554F4C49464341403E3CD8
:101C20003936302A23180E0300000000000000009F
:101C3000000000000000000000040C13191D232CFC
:101C4000353C424547494B4B4B4D4E4F51525455F5
:101C50005658595854514E4A4643403E3B3A3937FC
:101C600034322D2720170D03000000000000000073
:101C700000000000000000000001080F13181F28DA
:101C800031373C3F42434546464748494B4C4D4E11
:101C9000505152514E4B4744413D3A393735343219
:101CA000302E29241D150C03000000000000000048
:101CB00000000000000000000000030A0F141B25B4
:101CC0002D33373A3C3D3E3F40414243454647482D
:101CD0004A4B4B4A4745413D3B38353332312F2E35
:101CE0002C2A26211B130B0200000000000000001C
:101CF0000000000000000000000001060B0F17218B
:101D0000282E313437383839393A3B3C3E3F404150
:101D100042444543413E3B373533302F2D2C2B2A4F
:101D20002926231E181109020000000000000000EF
:101D3000000000000000000000000002060B131E5F
:101D400024292D2F313233333335363638383A3B68
:101D50003B3C3D3C3A373432302E2C2A292827266A
:101D600025221F1B161009010000000000000000C2
:101D70000000000000000000000000000207111B2E
:101D80002126292A2C2D2D2E2E2F3031323233337D
:101D90003536363634322F2D2B2A2726252423227A
:101DA000201F1C18130E0701000000000000000097
:101DB00000000000000000000000000001060F18F5
:101DC0001C2124252728292829292A2A2C2D2D2E93
:101DD0002F3030302E2C292826242322201F1F1E8E
:101DE0001C1C1915110C0701000000000000000068
:101DF00000000000000000000000000000040D15BD
:101E00001A1C1F202223232424242526272828299E
:101E1000292A2A2A2826242221201F1E1C1B1B1A9D
:101E2000191815120F0B0601000000000000000039
:101E300000000000000000000000000000030B1282
:101E400016181A1C1D1E1E1E1F1F202021222223B1
:101E50002324242423221F1E1D1C1A1A18171716A8
:101E6000151412100D09050000000000000000000C
:101E700000000000000000000000000000030A1045
:101E800011141617191A1A1A1A1A1B1C1C1C1D1EBB
:101E90001E1E1F1F1D1C1A191818161614131312B4
:101EA0001111100E0B0804000000000000000000DB
:101EB0000000000000000000000000000002080C0C
:101EC0000F101112141515151515161717171818C8
:101ED00019191A1A181715141312111110101010BD
:101EE0000F0F0D0B090603000000000000000000AA
:101EF0000000000000000000000000000002060BCF
:101F00000C0E1010101010111110111112121314C8
:101F1000141415151312111010100F0E0D0D0D0CB9
:101F20000C0C0B0907050200000000000000000077
:101F30000000000000000000000000000001040894
:101F4000090A0B0B0D0D0D0D0D0E0E0E0F0F0E0FC2
:101F50000F0F0F0F0F0E0E0D0C0B0B0B0A0A0A09B9
:101F6000090A080805040200000000000000000043
:101F70000000000000000000000000000001030657
:101F8000060708080A0A09090A0A0A0A0A0B0B0BBB
:101F90000B0B0B0B0A0A0A090908080807070707B1
:101FA0000707060504030100000000000000000010
:101FB000000000000000000000000000000002041B
:101FC00004050505060606060606060606070706B4
:101FD00007070707060606060605050505040404A7
:101FE00004040404020100000000000000000000DE
:101FF00000000000000000000000000000000001E0
:1020000001010201030203030203030303030303A9
:10201000030404040303030302020101010101029A
:1020200001010101000000000000000000000000AC
:1020300000000000000000000000000000000000A0
:102040000000000000000000000000000000000090
:102050000000000000000000000000000000000080
:102060000000000000000000FFFFFFFFFFFFFFFF78
:10207000FFFFFFFFFFFFFFFFFFFFFFFFFFFFFFFF70
:10208000FFFFFEFDFAF8F7F6F6F7F7F6F7F7F8F9BF
:10209000F9F9F9F9FAFBFBFBFEFEFFFFFFFFFFFF7B
:1020A000FFFFFFFFFFFFFFFFFFFFFFFFFFFFFFFF40
:1020B000FFFFFFFFFFFFFFFFFFFEFEFEFEFDFDFD3A
:1020C000FBF9F8F7F5F4F1EFEEF0F1F1F2F3F4F4D7
:1020D000F5F5F5F5F5F6F6F7F7F8FBFEFFFFFFFF70
:1020E000FFFFFFFFFFFFFFFFFFFFFFFFFFFFFFFF00
:1020F000FFFFFFFFFFFFFFFEFCFBF9F9FAF8F7F720
:10210000F7F7F5F3F0EDEAE8E8E8EAEAECECEDEDF4
:10211000EDEEEFEEF0F1F1F3F3F6F7FAFEFFFFFF6D
:10212000FFFFFFFFFFFFFFFFFFFFFFFFFFFFFFFFBF
:10213000FFFFFFFFFFFFFEFAF8F7F7F7F7F7F7F6F5
:10214000F5F3F0EEEAE6E2DFDFE0E1E2E3E4E6E722
:10215000E8E9E9E9EAEAEBEDEFF2F5F8FCFFFFFF69
:10216000FFFFFFFFFFFFFFFFFFFFFFFFFFFFFFFF7F
:10217000FFFFFFFFFFFEF9F7F7F7F7F7F6F4F2F1CD
:10218000F0EFECE8E4DFDAD6D6D8D9DADCDDDEE051
:10219000E0E0E1E2E4E4E6E8E9EEF1F5FCFFFFFF70
:1021A000FFFFFFFFFFFFFFFFFFFFFFFFFFFFFFFF3F
:1021B000FFFFFFFFFFFAF7F7F7F5F1F0EFEFEFEFB3
:1021C000EEE9E6E2DDD8D1CCCCCED0D1D3D5D6D78E
:1021D000D8D9DADBDDDEDEE1E6E8EEF3FAFEFFFF7A
:1021E000FFFFFFFFFFFFFFFFFFFFFFFFFFFFFFFFFF
:1021F000FFFFFFFFFDF9F7F6F3EFEFEFEFEEEDEA8C
:10220000E7E5E1DCD7CFC8C2C2C5C8C9CBCDCED0C7
:10221000D1D2D4D5D5D6D8DBDEE3E9F0F8FEFFFF86
:10222000FFFFFFFFFFFFFFFFFFFFFFFFFFFFFFFFBE
:10223000FFFFFFFFFBF7F6F1EFEFEEEDEBE9E7E66F
:10224000E4DFDBD6CFC7BEB7B8BABDBFC2C4C6C80D
:10225000C9CACCCCCDCFD2D5D8DDE5EDF6FDFFFF98
:10226000FFFFFFFFFFFFFFFFFFFFFFFFFFFFFFFF7E
:10227000FFFFFFFFFAF7F4EFEFEBE9E8E7E6E4E151
:10228000DEDAD5CFC8BDB4ACAEAFB2B5B7BABDBF5C
:10229000C1C2C3C4C5C8CBCED2D8E1EAF5FDFFFFA9
:1022A000FFFFFFFFFFFFFFFFFFFFFFFFFFFFFFFF3E
:1022B000FFFFFFFDF8F6F1EFEBE8E7E5E3E1DFDD37
:1022C000DAD5CFC8BFB4A9A1A3A5A8ABAEB1B4B6A7
:1022D000B8B9BBBCBDBFC2C8CBD3DCE6F2FDFFFFC3
:1022E000FFFFFFFFFFFFFFFFFFFFFFFFFFFFFFFFFE
:1022F000FFFFFFFCF8F4F0EBE7E6E1E0DEDEDCD721
:10230000D6CFC9C2B7AB9E9595999CA0A4A6AAADFD
:10231000AFAFB2B3B5B7BABFC5CDD6E3F0FCFFFFE0
:10232000FFFFFFFFFFFFFFFFFFFFFFFFFFFFFFFFBD
:10233000FFFFFFFCF7F2EFE8E7E0DEDDDAD8D6D406
:10234000CFCBC3B9AEA092898A8E9194989CA0A25B
:10235000A5A7A8AAACAFB3B8BFC8D2DFECF7FEFF01
:10236000FFFFFFFFFFFFFFFFFFFFFFFFFFFFFFFF7D
:10237000FFFFFFFBF5F1EBE7E1DEDBD8D6D5D3CFEE
:10238000CBC4BCB2A697877D7E8185898E909598B7
:102390009B9E9FA1A3A6AAB0B7C0CDDBE9F4FDFF29
:1023A000FFFFFFFFFFFFFFFFFFFFFFFFFFFFFFFF3D
:1023B000FFFFFEFAF4F0E9E4DEDAD6D5D3D0CDCAD9
:1023C000C5BDB5AA9D8D7B6F7074787E82878B8E1C
:1023D00090939597999DA1A8B0B9C7D7E5F0F9FF5B
:1023E000FFFFFFFFFFFFFFFFFFFFFFFFFFFFFFFFFD
:1023F000FFFFFEFAF3EDE7DFDCD6D3D0CDCCC9C4C6
:10240000BFB8AEA293816E6263686C71767B7E8486
:1024100086898B8D8F93989FA8B3C2D3E0EBF4FE8F
:10242000FFFFFFFFFFFFFFFFFFFFFFFFFFFFFFFFBC
:10243000FFFFFEF9F3EBE4DED7D3CECCC9C7C3BFB1
:10244000B9B1A79989766153545B60656A6F7378F7
:102450007B7F8183868A8F96A0ADBECEDBE6F0FCC3
:10246000FFFFFFFFFFFFFFFFFFFFFFFFFFFFFFFF7C
:10247000FFFFFDF8F2EAE1DAD6CECBC7C5C1BEB99F
:10248000B4AA9F91806B5444474C53575E64686D67
:10249000717476787B80868E98A6B9CAD7E1EAF8FF
:1024A000FFFFFFFFFFFFFFFFFFFFFFFFFFFFFFFF3C
:1024B000FFFFFDF7F0E8E0D7D0CCC6C3BEBDB9B48E
:1024C000ADA49788755F4636383E454A51565C61E3
:1024D00065696C6E71767C858FA1B6C6D3DCE5F438
:1024E000FFFFFFFFFFFFFFFFFFFFFFFFFFFFFFFFFC
:1024F000FFFFFDF5EDE5DDD5CEC6C1BDBAB6B4AE84
:10250000A69C8F7F6B5339282A30363E454A505659
:10251000595E6163676B727B889EB1C1CED7E0EE76
:10252000FDFFFFFFFFFFFFFFFFFFFFFFFFFFFFFFBD
:10253000FFFFFDF5EDE3DAD1CBC3BDB9B5B3AEA96D
:10254000A096887660472C181B22292F373E444BD3
:102550004E5255585C616972849AADBCC9D2DBE8B1
:10256000F9FFFFFFFFFFFFFFFFFFFFFFFFFFFFFF81
:10257000FFFFFDF5ECE2D8CFC7BEB9B4B0ADA9A25C
:10258000998E7F6D563B1D090C131A222A31383E55
:1025900042474A4C51575E6B8196A9B8C4CDD6E2EA
:1025A000F4FFFFFFFFFFFFFFFFFFFFFFFFFFFFFF46
:1025B000FFFFFDF4EADFD5CCC3BBB4B0ACA8A49C4C
:1025C000938777634B2E100202050C141D242B31C8
:1025D000363A3F41454C55687E92A4B3BFC7D0DC24
:1025E000EEFDFFFFFFFFFFFFFFFFFFFFFFFFFFFF0E
:1025F000FFFFFDF3E8DCD2C9BEB6AFAAA6A29E9645
:102600008C7F6F5A40210500000002070E171F251E
:10261000292F32363A404E647A8FA0AEB9C3CBD65A
:10262000E8FBFFFFFFFFFFFFFFFFFFFFFFFFFFFFD5
:10263000FFFFFCF2E6DBD1C6BBB2ABA6A19D978F34
:10264000867766503514020000000000020A121856
:102650001E24262A2F374A61768B9CAAB5BCC5D08A
:10266000E2F6FFFFFFFFFFFFFFFFFFFFFFFFFFFFA0
:10267000FFFFFBF1E5D9CDC1B7AEA6A09B97928A2B
:102680007F705E472A0B0000000000000001050C6F
:1026900011161B1E2432485F738797A4AFB7C0CBB7
:1026A000DBF0FEFFFFFFFFFFFFFFFFFFFFFFFFFF6E
:1026B000FFFFFBF0E4D7CABEB3AAA19B96928C841D
:1026C0007869563D1F06000000000000000000036E
:1026D000060A0F131C30455C7083939FAAB2BAC5DB
:1026E000D4EAFCFFFFFFFFFFFFFFFFFFFFFFFFFF3D
:1026F000FFFFFBEFE2D5C7BBAFA59C95908C867D15
:1027000071624D3314020000000000000000000060
:102710000002040A192E43586C7F8E9BA5ACB4BEF0
:10272000CEE3F8FFFFFFFFFFFFFFFFFFFFFFFFFF0D
:10273000FFFFFAEEE1D3C4B8AAA097908B867F770B
:102740006A5A45290C00000000000000000000004B
:1027500000000007182B4156697A8A959FA6AEB9EA
:10276000C8DBF3FFFFFFFFFFFFFFFFFFFFFFFFFFE0
:10277000FFFEF9EDDFD0C1B3A79C938A85807A7004
:1027800063523C1E06000000000000000000000034
:1027900000000007182B3F52667685919AA1A9B2D6
:1027A000C0D4ECFDFFFFFFFFFFFFFFFFFFFFFFFFB8
:1027B000FFFEF9ECDECEBEB1A3968D87807B746BF5
:1027C0005C4932150300000000000000000000001A
:1027D0000000000616293D506272808C949AA3ACCA
:1027E000B9CEE5FAFFFFFFFFFFFFFFFFFFFFFFFF8F
:1027F000FFFEF9ECDCCCBCAD9E9289807A756D64ED
:102800005542290E000000000000000000000000FA
:102810000000000615273A4D5E6E7B878F959CA6BB
:10282000B3C5DDF5FFFFFFFFFFFFFFFFFFFFFFFF6A
:10283000FFFEF9EADACAB9A99B8E847B746F685DE2
:102840004E3A2108000000000000000000000000D7
:10285000000000061426384A5B6A76828A90969FAA
:10286000ADBED5EFFEFFFFFFFFFFFFFFFFFFFFFF46
:10287000FFFEF8EAD9C7B6A6968A7F766F696157D8
:1028800047321803000000000000000000000000B4
:1028900000000005132436475666727D848A90999D
:1028A000A6B6CCE7FBFFFFFFFFFFFFFFFFFFFFFF29
:1028B000FFFEF7E8D7C5B3A292857A7169635C50D1
:1028C000402B11010000000000000000000000008B
:1028D000000000051223334453616E777F858B948B
:1028E0009FAFC4DFF8FFFFFFFFFFFFFFFFFFFFFF0A
:1028F000FFFEF7E7D5C3B09F8E81756C645D554AC6
:1029000038230A0000000000000000000000000062
:102910000000000511213142505E6972787F848D7C
:1029200099A8BCD5F2FEFFFFFFFFFFFFFFFFFFFFEF
:10293000FFFEF7E7D3C0AE9B8A7C70675E574F43BC
:10294000311B060000000000000000000000000035
:1029500000000005101F2E3D4C59656E74797F876D
:1029600091A0B3CCEAFDFFFFFFFFFFFFFFFFFFFFDA
:10297000FFFDF6E6D3BFAB9787786A6159534A3DAE
:102980002B14010000000000000000000000000007
:1029900000000004101E2D3B495560686E7379815C
:1029A0008B99ABC3E0F9FFFFFFFFFFFFFFFFFFFDC8
:1029B000FAF6F1E4D1BDA8948373665C534D4436B6
:1029C000240D0000000000000000000000000000D6
:1029D000000000040F1D2B3846515C63696E727A4B
:1029E0008492A3BAD5F4FEFFFFFFFFFFFFFEFBF5C5
:1029F000EFEAE6DFCFBAA5917F6F61564E473E30D2
:102A00001D070000000000000000000000000000A2
:102A1000000000040E1A2935424D565E64696D743B
:102A20007D8A9AB0CBEAFDFFFFFFFFFFFEF8F0E9D9
:102A3000E2DDDAD5CBB8A28D7A6A5C514841372AFB
:102A4000160200000000000000000000000000006E
:102A5000000000040E1926323E4951585E63676E2D
:102A6000778393A7C0DFFAFFFFFFFFFDF6EDE3DBFF
:102A7000D6D2CFCAC3B4A08A7666584C443C32231F
:102A80000F00000000000000000000000000000037
:102A9000000000040D1724303B454D54585D62681A
:102AA000707B8B9EB6D3F2FFFFFEFAF2E9DFD6D041
:102AB000CAC6C3BEB8AF9D87736152483D352B1D52
:102AC00009000000000000000000000000000000FD
:102AD000000000040D16212D3741494F53585B6209
:102AE0006A758395ABC7E6FDFBF6EDE5DBD2CAC39D
:102AF000BEBAB7B3ADA699836F5D4F423831261782
:102B000004000000000000000000000000000000C1
:102B1000000000030C15202A343C444A4E52565CF7
:102B2000646E7B8CA1BBD8F4EEE7DFD6CDC5BDB615
:102B3000B3AFACA8A29C92806B584A3D332B2011B6
:102B40000100000000000000000000000000000084
:102B5000000000030A131E28303840464A4D5056E4
:102B60005D67738398AFCAE6DED8D0C8C0B8B1AB92
:102B7000A7A3A09C9891897C685445392F261B0BEC
:102B80000000000000000000000000000000000045
:102B90000000000209121B242C343C4145484B50D4
:102BA00057606C7B8DA4BED8CFCAC2BAB3ADA59F07
:102BB0009B9895928E888075645040332921150525
:102BC0000000000000000000000000000000000005
:102BD00000000002081019222A32373C4043464BBD
:102BE000505964728498B0CAC2BAB3ADA69F999383
:102BF000908D8A88847E766D604C3C2F251C0F0258
:102C000000000000000000000000000000000000C4
:102C100000000001060F1720282D33383A3E4245A8
:102C20004A535D6A7A8DA3BBB2ACA59F99938D88F8
:102C30008682807D79746D655848372A1F160A018F
:102C40000000000000000000000000000000000084
:102C500000000000060E161D232A303236393B4094
:102C6000444D5662708398ACA39E98938D87817D66
:102C70007A7775736F6B645C514433261B120600C0
:102C80000000000000000000000000000000000044
:102C900000000000050D131921282C2F3134373A7C
:102CA0003F464F5967788B9E95918C87817B7672D2
:102CB000706D6B6966625B534A3E2F21160D0300EF
:102CC0000000000000000000000000000000000004
:102CD00000000000050B10181D23282B2D2F323566
:102CE000394048515E6E7F9188837F7A75706C6839
:102CF000666462605C58544C44382B1D1208010015
:102D000000000000000000000000000000000000C3
:102D10000000000005090F16192023272A2B2D314A
:102D2000333A414A556473847A77726D6965615D9F
:102D30005B595856534F4B453C3226190D04000041
:102D40000000000000000000000000000000000083
:102D50000000000004080F12181B21222428292A31
:102D60002F333A434D5968766E6A67635E5A5754FB
:102D700051504F4D4A47433D372D2215090200005F
:102D80000000000000000000000000000000000043
:102D90000000000003070D1016181C202121232815
:102DA000292E343C45515E6A615E5B5753504D4A53
:102DB00048474644423F3B3630281E12050000007B
:102DC0000000000000000000000000000000000003
:102DD0000000000002060910111618191C1F2021FE
:102DE00024292E343D47525E54524F4C49464341AC
:102DF0003F3E3D3B3937342F2A23190F0500000091
:102E000000000000000000000000000000000000C2
:102E1000000000000106080D1012161718191B1DDE
:102E20002024282E353E4852494744423F3D3A38F7
:102E300036353433312F2C28241D160E04000000A3
:102E40000000000000000000000000000000000082
:102E500000000000000508090E10111315161718C0
:102E60001A1E23272D363F483F3D3A373533302F42
:102E70002D2D2C2B2A2825221E18110B04000000B2
:102E80000000000000000000000000000000000042
:102E90000000000000020708090E101011111214A2
:102EA00016191D22272D353D3432302E2C2A292784
:102EB0002626242322211F1B19130E0903000000BC
:102EC0000000000000000000000000000000000002
:102ED000000000000000060808090C0E0F1010107A
:102EE0001114181B20262B322A29272523222121C1
:102EF0001F1D1D1D1B191817130F0A0601000000C6
:102F000000000000000000000000000000000000C1
:102F1000000000000000010808080808090A0C0E5B
:102F20000F101115191D2328201F1E1D1B191817FE
:102F300016161616151412100F0B080400000000C8
:102F40000000000000000000000000000000000081
:102F50000000000000000002060708080808080832
:102F6000090C0E0F12161A1F171515151312111131
:102F7000100F0E0E0E0D0D0B0908050200000000CB
:102F80000000000000000000000000000000000041
:102F9000000000000000000001030505050607060B
:102FA0000708090B0D0F12160E0E0C0C0B0B0B0B5A
:102FB0000A0A0A0A090808060504010000000000C0
:102FC0000000000000000000000000000000000001
:102FD00000000000000000000000000100010202EB
:102FE00003030506080A0C0E07070606050503037A
:102FF00004030303020202010100000000000000BC
:1030000000000000000000000000000000000000C0
:1030100000000000000000000000000000000000B0
:10302000000000010203050600000000000000008F
:103030000000000000000000000000000000000090
:103040000000000000000000000000000000000080
:103050000000000000000000000000000000000070
:103060000000000000000000000000000000000060
:10606000000000000000000011241FBECFEFD8E0A8
:10607000DEBFCDBF11E0A0E0B1E0ECEFF2E602C080
:1060800005900D92A230B107D9F721E0A2E0B1E06E
:1060900001C01D92A430B207E1F70E9454310C9464
:1060A0007C310C940000009721F0019780FF05C01F
:1060B00002C08FE190E0409A01C0409881FF02C089
:1060C000419A01C0419882FF02C0429A01C04298A1
:1060D00083FF02C0439A01C0439884FF02C0449AE0
:1060E000089544980895289A28980895E091020107
:1060F000F09103012091000130910101009709F016
:1061000056C0E29FC001E39F900DF29F900D1124B5
:106110000024769567950794769567950794762F72
:10612000602D460F571FFA01E859FF4DE491F0E04A
:106130008E179F0714F45A9A01C05A98FA01E85929
:10614000FF4EE491F0E08E179F0714F45B9A01C0B4
:106150005B98FA01E859FF4FE491F0E08E179F0732
:1061600014F45C9A01C05C98585FFA01E859FF4D3D
:10617000E491F0E08E179F0714F45D9A01C05D98DA
:10618000FA01E859FF4EE491F0E08E179F0714F4EE
:106190005E9A01C05E98FA01E859FF4F449150E0C1
:1061A0008417950714F45F9A08955F9808950197EE
:1061B00009F042C000247695679507947695679517
:1061C0000794762F602D460F571FFA01E859FF4AB2
:1061D000E491EE2311F05A9A01C05A98FA01E85955
:1061E000FF4BE491EE2311F05B9A01C05B98FA013A
:1061F000E859FF4CE491EE2311F05C9A01C05C98E1
:10620000585FFA01E859FF4AE491EE2311F05D9AD4
:1062100001C05D98FA01E859FF4BE491EE2311F0BB
:106220005E9A01C05E98FA01E859FF4C44914423FC
:1062300011F05F9A08955F980895EF92FF920F937F
:106240001F93CF93DF937C018B012A9A2A98C0E099
:10625000D0E0AE01B801C7010E9476300E947330D1
:106260002196C034D105A9F7DF91CF911F910F91ED
:10627000FF90EF9008950F931F93CF93DF938C01BE
:10628000C0E0D0E0CE010E945330BE01C8010E94A0
:106290001D31299A29982196C032D10599F7DF91AD
:1062A000CF911F910F9108958FEF87B984B98AB963
:1062B00015B81BB818B800E010E0EE24EA94F12CF1
:1062C000C02FD12FD0930301C0930201802F912FB3
:1062D0000E943B312196C11581E0D80799F7CE2D58
:1062E000DF2DD0930301C0930201802F912F0E94D4
:0C62F0003B312197B0F7E4CFF894FFCFCA
:0262FC0001009F
:00000001FF
